{
  "_format": "hh-sol-artifact-1",
  "contractName": "MemePortal",
  "sourceName": "contracts/MemePortal.sol",
  "abi": [
    {
      "inputs": [],
      "stateMutability": "payable",
      "type": "constructor"
    },
    {
      "anonymous": false,
      "inputs": [
        {
          "indexed": true,
          "internalType": "address",
          "name": "from",
          "type": "address"
        },
        {
          "indexed": false,
          "internalType": "uint256",
          "name": "timestamp",
          "type": "uint256"
        },
        {
          "indexed": false,
          "internalType": "string",
          "name": "ipfsFileUrl",
          "type": "string"
        }
      ],
      "name": "NewMeme",
      "type": "event"
    },
    {
      "inputs": [],
      "name": "getAllMemes",
      "outputs": [
        {
          "components": [
            {
              "internalType": "address",
              "name": "memer",
              "type": "address"
            },
            {
              "internalType": "string",
              "name": "ipfsFileUrl",
              "type": "string"
            },
            {
              "internalType": "uint256",
              "name": "timestamp",
              "type": "uint256"
            }
          ],
          "internalType": "struct MemePortal.Meme[]",
          "name": "",
          "type": "tuple[]"
        }
      ],
      "stateMutability": "view",
      "type": "function"
    },
    {
      "inputs": [],
      "name": "getTotalMemes",
      "outputs": [
        {
          "internalType": "uint256",
          "name": "",
          "type": "uint256"
        }
      ],
      "stateMutability": "view",
      "type": "function"
    },
    {
      "inputs": [
        {
          "internalType": "address",
          "name": "",
          "type": "address"
        }
      ],
      "name": "lastMemedAt",
      "outputs": [
        {
          "internalType": "uint256",
          "name": "",
          "type": "uint256"
        }
      ],
      "stateMutability": "view",
      "type": "function"
    },
    {
      "inputs": [
        {
          "internalType": "string",
          "name": "_ipsfFileUrl",
          "type": "string"
        }
      ],
      "name": "sendMeme",
      "outputs": [],
      "stateMutability": "nonpayable",
      "type": "function"
    }
  ],
  "bytecode": "0x60806040526200004f6040518060400160405280601981526020017f4920414d20534d41525420434f4e54524143542e20504f472e000000000000008152506200007760201b620006071760201c565b606444426200005f9190620001c4565b6200006b919062000261565b60018190555062000308565b62000117816040516024016200008e919062000184565b6040516020818303038152906040527f41304fac000000000000000000000000000000000000000000000000000000007bffffffffffffffffffffffffffffffffffffffffffffffffffffffff19166020820180517bffffffffffffffffffffffffffffffffffffffffffffffffffffffff83818316178352505050506200011a60201b60201c565b50565b60008151905060006a636f6e736f6c652e6c6f679050602083016000808483855afa5050505050565b60006200015082620001a8565b6200015c8185620001b3565b93506200016e8185602086016200022b565b6200017981620002f7565b840191505092915050565b60006020820190508181036000830152620001a0818462000143565b905092915050565b600081519050919050565b600082825260208201905092915050565b6000620001d18262000221565b9150620001de8362000221565b9250827fffffffffffffffffffffffffffffffffffffffffffffffffffffffffffffffff0382111562000216576200021562000299565b5b828201905092915050565b6000819050919050565b60005b838110156200024b5780820151818401526020810190506200022e565b838111156200025b576000848401525b50505050565b60006200026e8262000221565b91506200027b8362000221565b9250826200028e576200028d620002c8565b5b828206905092915050565b7f4e487b7100000000000000000000000000000000000000000000000000000000600052601160045260246000fd5b7f4e487b7100000000000000000000000000000000000000000000000000000000600052601260045260246000fd5b6000601f19601f8301169050919050565b6110e580620003186000396000f3fe608060405234801561001057600080fd5b506004361061004c5760003560e01c806339ce2a5714610051578063565dcaa81461006d57806386ef269f1461008b578063e20645a6146100bb575b600080fd5b61006b6004803603810190610066919061094a565b6100d9565b005b610075610453565b6040516100829190610c73565b60405180910390f35b6100a560048036038101906100a09190610921565b6105a4565b6040516100b29190610d77565b60405180910390f35b6100c36105bc565b6040516100d09190610d77565b60405180910390f35b42601e600360003373ffffffffffffffffffffffffffffffffffffffff1673ffffffffffffffffffffffffffffffffffffffff168152602001908152602001600020546101269190610e94565b10610166576040517f08c379a000000000000000000000000000000000000000000000000000000000815260040161015d90610d57565b60405180910390fd5b42600360003373ffffffffffffffffffffffffffffffffffffffff1673ffffffffffffffffffffffffffffffffffffffff1681526020019081526020016000208190555060016000808282546101bc9190610e94565b925050819055506102026040518060400160405280601781526020017f2573206861732073656e7420796f752061206d656d6521000000000000000000815250336106a0565b600260405180606001604052803373ffffffffffffffffffffffffffffffffffffffff16815260200183815260200142815250908060018154018082558091505060019003906000526020600020906003020160009091909190915060008201518160000160006101000a81548173ffffffffffffffffffffffffffffffffffffffff021916908373ffffffffffffffffffffffffffffffffffffffff16021790555060208201518160010190805190602001906102c1929190610801565b50604082015181600201555050606460015442446102df9190610e94565b6102e99190610e94565b6102f39190610f9a565b600181905550601e6001541161040057600065c645148fa000905047811115610351576040517f08c379a000000000000000000000000000000000000000000000000000000000815260040161034890610d17565b60405180910390fd5b60003373ffffffffffffffffffffffffffffffffffffffff168260405161037790610c5e565b60006040518083038185875af1925050503d80600081146103b4576040519150601f19603f3d011682016040523d82523d6000602084013e6103b9565b606091505b50509050806103fd576040517f08c379a00000000000000000000000000000000000000000000000000000000081526004016103f490610d37565b60405180910390fd5b50505b3373ffffffffffffffffffffffffffffffffffffffff167f5162a244fe825a87a827869cc716c9fb1e08eb37783d9799cca5be8b68dc386a4283604051610448929190610d92565b60405180910390a250565b60606002805480602002602001604051908101604052809291908181526020016000905b8282101561059b57838290600052602060002090600302016040518060600160405290816000820160009054906101000a900473ffffffffffffffffffffffffffffffffffffffff1673ffffffffffffffffffffffffffffffffffffffff1673ffffffffffffffffffffffffffffffffffffffff16815260200160018201805461050090610f68565b80601f016020809104026020016040519081016040528092919081815260200182805461052c90610f68565b80156105795780601f1061054e57610100808354040283529160200191610579565b820191906000526020600020905b81548152906001019060200180831161055c57829003601f168201915b5050505050815260200160028201548152505081526020019060010190610477565b50505050905090565b60036020528060005260406000206000915090505481565b60006105ff6040518060400160405280601781526020017f5765206861766520256420746f74616c206d656d65732100000000000000000081525060005461073c565b600054905090565b61069d8160405160240161061b9190610c95565b6040516020818303038152906040527f41304fac000000000000000000000000000000000000000000000000000000007bffffffffffffffffffffffffffffffffffffffffffffffffffffffff19166020820180517bffffffffffffffffffffffffffffffffffffffffffffffffffffffff83818316178352505050506107d8565b50565b61073882826040516024016106b6929190610cb7565b6040516020818303038152906040527f319af333000000000000000000000000000000000000000000000000000000007bffffffffffffffffffffffffffffffffffffffffffffffffffffffff19166020820180517bffffffffffffffffffffffffffffffffffffffffffffffffffffffff83818316178352505050506107d8565b5050565b6107d48282604051602401610752929190610ce7565b6040516020818303038152906040527f9710a9d0000000000000000000000000000000000000000000000000000000007bffffffffffffffffffffffffffffffffffffffffffffffffffffffff19166020820180517bffffffffffffffffffffffffffffffffffffffffffffffffffffffff83818316178352505050506107d8565b5050565b60008151905060006a636f6e736f6c652e6c6f679050602083016000808483855afa5050505050565b82805461080d90610f68565b90600052602060002090601f01602090048101928261082f5760008555610876565b82601f1061084857805160ff1916838001178555610876565b82800160010185558215610876579182015b8281111561087557825182559160200191906001019061085a565b5b5090506108839190610887565b5090565b5b808211156108a0576000816000905550600101610888565b5090565b60006108b76108b284610df3565b610dc2565b9050828152602081018484840111156108cf57600080fd5b6108da848285610f26565b509392505050565b6000813590506108f181611098565b92915050565b600082601f83011261090857600080fd5b81356109188482602086016108a4565b91505092915050565b60006020828403121561093357600080fd5b6000610941848285016108e2565b91505092915050565b60006020828403121561095c57600080fd5b600082013567ffffffffffffffff81111561097657600080fd5b610982848285016108f7565b91505092915050565b60006109978383610bf0565b905092915050565b6109a881610eea565b82525050565b6109b781610eea565b82525050565b60006109c882610e33565b6109d28185610e56565b9350836020820285016109e485610e23565b8060005b85811015610a205784840389528151610a01858261098b565b9450610a0c83610e49565b925060208a019950506001810190506109e8565b50829750879550505050505092915050565b6000610a3d82610e3e565b610a478185610e72565b9350610a57818560208601610f35565b610a6081611087565b840191505092915050565b6000610a7682610e3e565b610a808185610e83565b9350610a90818560208601610f35565b610a9981611087565b840191505092915050565b6000610ab1603483610e83565b91507f547279696e6720746f207769746864726177206d6f7265206d6f6e657920746860008301527f616e2074686520636f6e7472616374206861732e0000000000000000000000006020830152604082019050919050565b6000610b17602783610e83565b91507f4661696c656420746f207769746864726177206d6f6e65792066726f6d20636f60008301527f6e74726163742e000000000000000000000000000000000000000000000000006020830152604082019050919050565b6000610b7d602e83610e83565b91507f4d7573742077616974203330207365636f6e6473206265666f72652073656e6460008301527f2061206d656d6520616761696e2e0000000000000000000000000000000000006020830152604082019050919050565b6000610be3600083610e67565b9150600082019050919050565b6000606083016000830151610c08600086018261099f565b5060208301518482036020860152610c208282610a32565b9150506040830151610c356040860182610c40565b508091505092915050565b610c4981610f1c565b82525050565b610c5881610f1c565b82525050565b6000610c6982610bd6565b9150819050919050565b60006020820190508181036000830152610c8d81846109bd565b905092915050565b60006020820190508181036000830152610caf8184610a6b565b905092915050565b60006040820190508181036000830152610cd18185610a6b565b9050610ce060208301846109ae565b9392505050565b60006040820190508181036000830152610d018185610a6b565b9050610d106020830184610c4f565b9392505050565b60006020820190508181036000830152610d3081610aa4565b9050919050565b60006020820190508181036000830152610d5081610b0a565b9050919050565b60006020820190508181036000830152610d7081610b70565b9050919050565b6000602082019050610d8c6000830184610c4f565b92915050565b6000604082019050610da76000830185610c4f565b8181036020830152610db98184610a6b565b90509392505050565b6000604051905081810181811067ffffffffffffffff82111715610de957610de8611058565b5b8060405250919050565b600067ffffffffffffffff821115610e0e57610e0d611058565b5b601f19601f8301169050602081019050919050565b6000819050602082019050919050565b600081519050919050565b600081519050919050565b6000602082019050919050565b600082825260208201905092915050565b600081905092915050565b600082825260208201905092915050565b600082825260208201905092915050565b6000610e9f82610f1c565b9150610eaa83610f1c565b9250827fffffffffffffffffffffffffffffffffffffffffffffffffffffffffffffffff03821115610edf57610ede610fcb565b5b828201905092915050565b6000610ef582610efc565b9050919050565b600073ffffffffffffffffffffffffffffffffffffffff82169050919050565b6000819050919050565b82818337600083830152505050565b60005b83811015610f53578082015181840152602081019050610f38565b83811115610f62576000848401525b50505050565b60006002820490506001821680610f8057607f821691505b60208210811415610f9457610f93611029565b5b50919050565b6000610fa582610f1c565b9150610fb083610f1c565b925082610fc057610fbf610ffa565b5b828206905092915050565b7f4e487b7100000000000000000000000000000000000000000000000000000000600052601160045260246000fd5b7f4e487b7100000000000000000000000000000000000000000000000000000000600052601260045260246000fd5b7f4e487b7100000000000000000000000000000000000000000000000000000000600052602260045260246000fd5b7f4e487b7100000000000000000000000000000000000000000000000000000000600052604160045260246000fd5b6000601f19601f8301169050919050565b6110a181610eea565b81146110ac57600080fd5b5056fea2646970667358221220cf75af167eec67deadada1a14d0bb3cb066f292555dc940b143c71ae1647134264736f6c63430008000033",
  "linkReferences": {},
  "deployedLinkReferences": {}
}