{
  "_format": "hh-sol-artifact-1",
  "contractName": "MemePortal",
  "sourceName": "contracts/MemePortal.sol",
  "abi": [
    {
      "inputs": [],
      "stateMutability": "payable",
      "type": "constructor"
    },
    {
      "anonymous": false,
      "inputs": [
        {
          "indexed": true,
          "internalType": "address",
          "name": "from",
          "type": "address"
        },
        {
          "indexed": false,
          "internalType": "uint256",
          "name": "timestamp",
          "type": "uint256"
        },
        {
          "indexed": false,
          "internalType": "string",
          "name": "ipfsFileUrl",
          "type": "string"
        }
      ],
      "name": "NewMeme",
      "type": "event"
    },
    {
      "inputs": [],
      "name": "getAllMemes",
      "outputs": [
        {
          "components": [
            {
              "internalType": "address",
              "name": "memer",
              "type": "address"
            },
            {
              "internalType": "string",
              "name": "ipfsFileUrl",
              "type": "string"
            },
            {
              "internalType": "uint256",
              "name": "timestamp",
              "type": "uint256"
            }
          ],
          "internalType": "struct MemePortal.Meme[]",
          "name": "",
          "type": "tuple[]"
        }
      ],
      "stateMutability": "view",
      "type": "function"
    },
    {
      "inputs": [],
      "name": "getTotalMemes",
      "outputs": [
        {
          "internalType": "uint256",
          "name": "",
          "type": "uint256"
        }
      ],
      "stateMutability": "view",
      "type": "function"
    },
    {
      "inputs": [
        {
          "internalType": "address",
          "name": "",
          "type": "address"
        }
      ],
      "name": "lastMemedAt",
      "outputs": [
        {
          "internalType": "uint256",
          "name": "",
          "type": "uint256"
        }
      ],
      "stateMutability": "view",
      "type": "function"
    },
    {
      "inputs": [
        {
          "internalType": "string",
          "name": "_ipsfFileUrl",
          "type": "string"
        }
      ],
      "name": "sendMeme",
      "outputs": [],
      "stateMutability": "nonpayable",
      "type": "function"
    }
  ],
  "bytecode": "0x60806040526200004f6040518060400160405280601981526020017f4920414d20534d41525420434f4e54524143542e20504f472e000000000000008152506200007760201b620006081760201c565b606444426200005f9190620001c4565b6200006b919062000261565b60018190555062000308565b62000117816040516024016200008e919062000184565b6040516020818303038152906040527f41304fac000000000000000000000000000000000000000000000000000000007bffffffffffffffffffffffffffffffffffffffffffffffffffffffff19166020820180517bffffffffffffffffffffffffffffffffffffffffffffffffffffffff83818316178352505050506200011a60201b60201c565b50565b60008151905060006a636f6e736f6c652e6c6f679050602083016000808483855afa5050505050565b60006200015082620001a8565b6200015c8185620001b3565b93506200016e8185602086016200022b565b6200017981620002f7565b840191505092915050565b60006020820190508181036000830152620001a0818462000143565b905092915050565b600081519050919050565b600082825260208201905092915050565b6000620001d18262000221565b9150620001de8362000221565b9250827fffffffffffffffffffffffffffffffffffffffffffffffffffffffffffffffff0382111562000216576200021562000299565b5b828201905092915050565b6000819050919050565b60005b838110156200024b5780820151818401526020810190506200022e565b838111156200025b576000848401525b50505050565b60006200026e8262000221565b91506200027b8362000221565b9250826200028e576200028d620002c8565b5b828206905092915050565b7f4e487b7100000000000000000000000000000000000000000000000000000000600052601160045260246000fd5b7f4e487b7100000000000000000000000000000000000000000000000000000000600052601260045260246000fd5b6000601f19601f8301169050919050565b6110c080620003186000396000f3fe608060405234801561001057600080fd5b506004361061004c5760003560e01c806339ce2a5714610051578063565dcaa81461006d57806386ef269f1461008b578063e20645a6146100bb575b600080fd5b61006b6004803603810190610066919061094b565b6100d9565b005b610075610454565b6040516100829190610c4e565b60405180910390f35b6100a560048036038101906100a09190610922565b6105a5565b6040516100b29190610d52565b60405180910390f35b6100c36105bd565b6040516100d09190610d52565b60405180910390f35b42610384600360003373ffffffffffffffffffffffffffffffffffffffff1673ffffffffffffffffffffffffffffffffffffffff168152602001908152602001600020546101279190610e6f565b10610167576040517f08c379a000000000000000000000000000000000000000000000000000000000815260040161015e90610d32565b60405180910390fd5b42600360003373ffffffffffffffffffffffffffffffffffffffff1673ffffffffffffffffffffffffffffffffffffffff1681526020019081526020016000208190555060016000808282546101bd9190610e6f565b925050819055506102036040518060400160405280601781526020017f2573206861732073656e7420796f752061206d656d6521000000000000000000815250336106a1565b600260405180606001604052803373ffffffffffffffffffffffffffffffffffffffff16815260200183815260200142815250908060018154018082558091505060019003906000526020600020906003020160009091909190915060008201518160000160006101000a81548173ffffffffffffffffffffffffffffffffffffffff021916908373ffffffffffffffffffffffffffffffffffffffff16021790555060208201518160010190805190602001906102c2929190610802565b50604082015181600201555050606460015442446102e09190610e6f565b6102ea9190610e6f565b6102f49190610f75565b600181905550601e6001541161040157600065c645148fa000905047811115610352576040517f08c379a000000000000000000000000000000000000000000000000000000000815260040161034990610cf2565b60405180910390fd5b60003373ffffffffffffffffffffffffffffffffffffffff168260405161037890610c39565b60006040518083038185875af1925050503d80600081146103b5576040519150601f19603f3d011682016040523d82523d6000602084013e6103ba565b606091505b50509050806103fe576040517f08c379a00000000000000000000000000000000000000000000000000000000081526004016103f590610d12565b60405180910390fd5b50505b3373ffffffffffffffffffffffffffffffffffffffff167f5162a244fe825a87a827869cc716c9fb1e08eb37783d9799cca5be8b68dc386a4283604051610449929190610d6d565b60405180910390a250565b60606002805480602002602001604051908101604052809291908181526020016000905b8282101561059c57838290600052602060002090600302016040518060600160405290816000820160009054906101000a900473ffffffffffffffffffffffffffffffffffffffff1673ffffffffffffffffffffffffffffffffffffffff1673ffffffffffffffffffffffffffffffffffffffff16815260200160018201805461050190610f43565b80601f016020809104026020016040519081016040528092919081815260200182805461052d90610f43565b801561057a5780601f1061054f5761010080835404028352916020019161057a565b820191906000526020600020905b81548152906001019060200180831161055d57829003601f168201915b5050505050815260200160028201548152505081526020019060010190610478565b50505050905090565b60036020528060005260406000206000915090505481565b60006106006040518060400160405280601781526020017f5765206861766520256420746f74616c206d656d65732100000000000000000081525060005461073d565b600054905090565b61069e8160405160240161061c9190610c70565b6040516020818303038152906040527f41304fac000000000000000000000000000000000000000000000000000000007bffffffffffffffffffffffffffffffffffffffffffffffffffffffff19166020820180517bffffffffffffffffffffffffffffffffffffffffffffffffffffffff83818316178352505050506107d9565b50565b61073982826040516024016106b7929190610c92565b6040516020818303038152906040527f319af333000000000000000000000000000000000000000000000000000000007bffffffffffffffffffffffffffffffffffffffffffffffffffffffff19166020820180517bffffffffffffffffffffffffffffffffffffffffffffffffffffffff83818316178352505050506107d9565b5050565b6107d58282604051602401610753929190610cc2565b6040516020818303038152906040527f9710a9d0000000000000000000000000000000000000000000000000000000007bffffffffffffffffffffffffffffffffffffffffffffffffffffffff19166020820180517bffffffffffffffffffffffffffffffffffffffffffffffffffffffff83818316178352505050506107d9565b5050565b60008151905060006a636f6e736f6c652e6c6f679050602083016000808483855afa5050505050565b82805461080e90610f43565b90600052602060002090601f0160209004810192826108305760008555610877565b82601f1061084957805160ff1916838001178555610877565b82800160010185558215610877579182015b8281111561087657825182559160200191906001019061085b565b5b5090506108849190610888565b5090565b5b808211156108a1576000816000905550600101610889565b5090565b60006108b86108b384610dce565b610d9d565b9050828152602081018484840111156108d057600080fd5b6108db848285610f01565b509392505050565b6000813590506108f281611073565b92915050565b600082601f83011261090957600080fd5b81356109198482602086016108a5565b91505092915050565b60006020828403121561093457600080fd5b6000610942848285016108e3565b91505092915050565b60006020828403121561095d57600080fd5b600082013567ffffffffffffffff81111561097757600080fd5b610983848285016108f8565b91505092915050565b60006109988383610bcb565b905092915050565b6109a981610ec5565b82525050565b6109b881610ec5565b82525050565b60006109c982610e0e565b6109d38185610e31565b9350836020820285016109e585610dfe565b8060005b85811015610a215784840389528151610a02858261098c565b9450610a0d83610e24565b925060208a019950506001810190506109e9565b50829750879550505050505092915050565b6000610a3e82610e19565b610a488185610e4d565b9350610a58818560208601610f10565b610a6181611062565b840191505092915050565b6000610a7782610e19565b610a818185610e5e565b9350610a91818560208601610f10565b610a9a81611062565b840191505092915050565b6000610ab2603483610e5e565b91507f547279696e6720746f207769746864726177206d6f7265206d6f6e657920746860008301527f616e2074686520636f6e7472616374206861732e0000000000000000000000006020830152604082019050919050565b6000610b18602783610e5e565b91507f4661696c656420746f207769746864726177206d6f6e65792066726f6d20636f60008301527f6e74726163742e000000000000000000000000000000000000000000000000006020830152604082019050919050565b6000610b7e600083610e42565b9150600082019050919050565b6000610b98600883610e5e565b91507f576169742031356d0000000000000000000000000000000000000000000000006000830152602082019050919050565b6000606083016000830151610be360008601826109a0565b5060208301518482036020860152610bfb8282610a33565b9150506040830151610c106040860182610c1b565b508091505092915050565b610c2481610ef7565b82525050565b610c3381610ef7565b82525050565b6000610c4482610b71565b9150819050919050565b60006020820190508181036000830152610c6881846109be565b905092915050565b60006020820190508181036000830152610c8a8184610a6c565b905092915050565b60006040820190508181036000830152610cac8185610a6c565b9050610cbb60208301846109af565b9392505050565b60006040820190508181036000830152610cdc8185610a6c565b9050610ceb6020830184610c2a565b9392505050565b60006020820190508181036000830152610d0b81610aa5565b9050919050565b60006020820190508181036000830152610d2b81610b0b565b9050919050565b60006020820190508181036000830152610d4b81610b8b565b9050919050565b6000602082019050610d676000830184610c2a565b92915050565b6000604082019050610d826000830185610c2a565b8181036020830152610d948184610a6c565b90509392505050565b6000604051905081810181811067ffffffffffffffff82111715610dc457610dc3611033565b5b8060405250919050565b600067ffffffffffffffff821115610de957610de8611033565b5b601f19601f8301169050602081019050919050565b6000819050602082019050919050565b600081519050919050565b600081519050919050565b6000602082019050919050565b600082825260208201905092915050565b600081905092915050565b600082825260208201905092915050565b600082825260208201905092915050565b6000610e7a82610ef7565b9150610e8583610ef7565b9250827fffffffffffffffffffffffffffffffffffffffffffffffffffffffffffffffff03821115610eba57610eb9610fa6565b5b828201905092915050565b6000610ed082610ed7565b9050919050565b600073ffffffffffffffffffffffffffffffffffffffff82169050919050565b6000819050919050565b82818337600083830152505050565b60005b83811015610f2e578082015181840152602081019050610f13565b83811115610f3d576000848401525b50505050565b60006002820490506001821680610f5b57607f821691505b60208210811415610f6f57610f6e611004565b5b50919050565b6000610f8082610ef7565b9150610f8b83610ef7565b925082610f9b57610f9a610fd5565b5b828206905092915050565b7f4e487b7100000000000000000000000000000000000000000000000000000000600052601160045260246000fd5b7f4e487b7100000000000000000000000000000000000000000000000000000000600052601260045260246000fd5b7f4e487b7100000000000000000000000000000000000000000000000000000000600052602260045260246000fd5b7f4e487b7100000000000000000000000000000000000000000000000000000000600052604160045260246000fd5b6000601f19601f8301169050919050565b61107c81610ec5565b811461108757600080fd5b5056fea2646970667358221220d286cc1dc301bcd3be8a58bb7f26f3a12fa2b6a95b224f722232d2bb061770a564736f6c63430008000033",
  "linkReferences": {},
  "deployedLinkReferences": {}
}